{
  "contractName": "Note",
  "abi": [
    {
      "inputs": [],
      "name": "adress",
      "outputs": [
        {
          "internalType": "string",
          "name": "",
          "type": "string"
        }
      ],
      "stateMutability": "view",
      "type": "function"
    },
    {
      "inputs": [],
      "name": "name",
      "outputs": [
        {
          "internalType": "string",
          "name": "",
          "type": "string"
        }
      ],
      "stateMutability": "view",
      "type": "function"
    },
    {
      "inputs": [
        {
          "internalType": "string",
          "name": "newName",
          "type": "string"
        },
        {
          "internalType": "uint256",
          "name": "newNumber",
          "type": "uint256"
        },
        {
          "internalType": "string",
          "name": "newAdress",
          "type": "string"
        }
      ],
      "name": "set",
      "outputs": [],
      "stateMutability": "nonpayable",
      "type": "function"
    },
    {
      "inputs": [],
      "name": "get",
      "outputs": [
        {
          "internalType": "string",
          "name": "",
          "type": "string"
        },
        {
          "internalType": "uint256",
          "name": "",
          "type": "uint256"
        },
        {
          "internalType": "string",
          "name": "",
          "type": "string"
        }
      ],
      "stateMutability": "view",
      "type": "function"
    }
  ],
  "bytecode": "0x608060405234801561001057600080fd5b506107a2806100206000396000f3fe608060405234801561001057600080fd5b506004361061004c5760003560e01c806306fdde03146100515780636d4ce63c1461006f5780638c878f381461008f578063dab8e133146100ad575b600080fd5b6100596100c9565b604051610066919061048b565b60405180910390f35b610077610157565b604051610086939291906104c6565b60405180910390f35b610097610287565b6040516100a4919061048b565b60405180910390f35b6100c760048036038101906100c29190610680565b610315565b005b600080546100d69061073a565b80601f01602080910402602001604051908101604052809291908181526020018280546101029061073a565b801561014f5780601f106101245761010080835404028352916020019161014f565b820191906000526020600020905b81548152906001019060200180831161013257829003601f168201915b505050505081565b606060006060600060015460028280546101709061073a565b80601f016020809104026020016040519081016040528092919081815260200182805461019c9061073a565b80156101e95780601f106101be576101008083540402835291602001916101e9565b820191906000526020600020905b8154815290600101906020018083116101cc57829003601f168201915b505050505092508080546101fc9061073a565b80601f01602080910402602001604051908101604052809291908181526020018280546102289061073a565b80156102755780601f1061024a57610100808354040283529160200191610275565b820191906000526020600020905b81548152906001019060200180831161025857829003601f168201915b50505050509050925092509250909192565b600280546102949061073a565b80601f01602080910402602001604051908101604052809291908181526020018280546102c09061073a565b801561030d5780601f106102e25761010080835404028352916020019161030d565b820191906000526020600020905b8154815290600101906020018083116102f057829003601f168201915b505050505081565b826000908051906020019061032b92919061034f565b5081600181905550806002908051906020019061034992919061034f565b50505050565b82805461035b9061073a565b90600052602060002090601f01602090048101928261037d57600085556103c4565b82601f1061039657805160ff19168380011785556103c4565b828001600101855582156103c4579182015b828111156103c35782518255916020019190600101906103a8565b5b5090506103d191906103d5565b5090565b5b808211156103ee5760008160009055506001016103d6565b5090565b600081519050919050565b600082825260208201905092915050565b60005b8381101561042c578082015181840152602081019050610411565b8381111561043b576000848401525b50505050565b6000601f19601f8301169050919050565b600061045d826103f2565b61046781856103fd565b935061047781856020860161040e565b61048081610441565b840191505092915050565b600060208201905081810360008301526104a58184610452565b905092915050565b6000819050919050565b6104c0816104ad565b82525050565b600060608201905081810360008301526104e08186610452565b90506104ef60208301856104b7565b81810360408301526105018184610452565b9050949350505050565b6000604051905090565b600080fd5b600080fd5b600080fd5b600080fd5b7f4e487b7100000000000000000000000000000000000000000000000000000000600052604160045260246000fd5b61056182610441565b810181811067ffffffffffffffff821117156105805761057f610529565b5b80604052505050565b600061059361050b565b905061059f8282610558565b919050565b600067ffffffffffffffff8211156105bf576105be610529565b5b6105c882610441565b9050602081019050919050565b82818337600083830152505050565b60006105f76105f2846105a4565b610589565b90508281526020810184848401111561061357610612610524565b5b61061e8482856105d5565b509392505050565b600082601f83011261063b5761063a61051f565b5b813561064b8482602086016105e4565b91505092915050565b61065d816104ad565b811461066857600080fd5b50565b60008135905061067a81610654565b92915050565b60008060006060848603121561069957610698610515565b5b600084013567ffffffffffffffff8111156106b7576106b661051a565b5b6106c386828701610626565b93505060206106d48682870161066b565b925050604084013567ffffffffffffffff8111156106f5576106f461051a565b5b61070186828701610626565b9150509250925092565b7f4e487b7100000000000000000000000000000000000000000000000000000000600052602260045260246000fd5b6000600282049050600182168061075257607f821691505b602082108114156107665761076561070b565b5b5091905056fea264697066735822122063b13293fbffb2aabccfa35d272c8a0aff0e4e2a4a0682cbc55936871c822dae64736f6c634300080b0033",
  "immutableReferences": {},
  "source": "// SPDX-License-Identifier: MIT\npragma solidity >=0.4.22 <0.9.0;\n\ncontract Note {\n  string public name;\n  uint number;\n  string public adress;\n  function set(string memory newName, uint newNumber, string memory newAdress) public {\n    name = newName;\n    number = newNumber;\n    adress = newAdress;\n  }\n    function get() public view returns (string memory, uint, string memory) {\n      return (name, number, adress);\n\n    }\n}\n",
  "sourcePath": "/Users/admin/Desktop/Coding/Note/contracts/Note.sol",
  "compiler": {
    "name": "solc",
    "version": "0.8.11+commit.d7f03943.Emscripten.clang"
  },
  "schemaVersion": "3.4.4",
  "updatedAt": "2022-01-28T20:01:06.575Z",
  "devdoc": {
    "kind": "dev",
    "methods": {},
    "version": 1
  },
  "userdoc": {
    "kind": "user",
    "methods": {},
    "version": 1
  }
}